{
  "contractName": "NotificationModuleCore",
  "abi": [
    {
      "inputs": [],
      "stateMutability": "nonpayable",
      "type": "constructor"
    },
    {
      "anonymous": false,
      "inputs": [
        {
          "indexed": false,
          "internalType": "address",
          "name": "owner",
          "type": "address"
        },
        {
          "indexed": false,
          "internalType": "uint256",
          "name": "uuid",
          "type": "uint256"
        },
        {
          "indexed": false,
          "internalType": "uint256",
          "name": "timestamp",
          "type": "uint256"
        },
        {
          "indexed": false,
          "internalType": "string",
          "name": "filehash",
          "type": "string"
        }
      ],
      "name": "ChannelCreated",
      "type": "event"
    },
    {
      "anonymous": false,
      "inputs": [
        {
          "indexed": false,
          "internalType": "address",
          "name": "owner",
          "type": "address"
        },
        {
          "indexed": false,
          "internalType": "uint256",
          "name": "timestamp",
          "type": "uint256"
        },
        {
          "indexed": false,
          "internalType": "string",
          "name": "filehash",
          "type": "string"
        }
      ],
      "name": "ChannelDisabled",
      "type": "event"
    },
    {
      "anonymous": false,
      "inputs": [
        {
          "indexed": false,
          "internalType": "address",
          "name": "owner",
          "type": "address"
        },
        {
          "indexed": false,
          "internalType": "uint256",
          "name": "timestamp",
          "type": "uint256"
        },
        {
          "indexed": false,
          "internalType": "string",
          "name": "filehash",
          "type": "string"
        }
      ],
      "name": "ChannelUpdated",
      "type": "event"
    },
    {
      "anonymous": false,
      "inputs": [
        {
          "indexed": false,
          "internalType": "address",
          "name": "owner",
          "type": "address"
        },
        {
          "indexed": false,
          "internalType": "uint256",
          "name": "channelUUID",
          "type": "uint256"
        },
        {
          "indexed": false,
          "internalType": "uint256",
          "name": "timestamp",
          "type": "uint256"
        }
      ],
      "name": "SubscribedToChannel",
      "type": "event"
    },
    {
      "anonymous": false,
      "inputs": [
        {
          "indexed": false,
          "internalType": "address",
          "name": "owner",
          "type": "address"
        },
        {
          "indexed": false,
          "internalType": "uint256",
          "name": "channelUUID",
          "type": "uint256"
        },
        {
          "indexed": false,
          "internalType": "uint256",
          "name": "timestamp",
          "type": "uint256"
        }
      ],
      "name": "UnubscribedChannel",
      "type": "event"
    },
    {
      "anonymous": false,
      "inputs": [
        {
          "indexed": false,
          "internalType": "address",
          "name": "owner",
          "type": "address"
        },
        {
          "indexed": false,
          "internalType": "string",
          "name": "hash",
          "type": "string"
        },
        {
          "indexed": false,
          "internalType": "uint256",
          "name": "timestamp",
          "type": "uint256"
        }
      ],
      "name": "UserInfoUpdated",
      "type": "event"
    },
    {
      "inputs": [
        {
          "internalType": "address payable",
          "name": "_to",
          "type": "address"
        }
      ],
      "name": "destroy",
      "outputs": [],
      "stateMutability": "nonpayable",
      "type": "function"
    },
    {
      "inputs": [
        {
          "internalType": "uint256",
          "name": "uuid",
          "type": "uint256"
        },
        {
          "internalType": "string",
          "name": "protocol",
          "type": "string"
        },
        {
          "internalType": "address",
          "name": "protocolContractAddress",
          "type": "address"
        },
        {
          "internalType": "string",
          "name": "_newHash",
          "type": "string"
        }
      ],
      "name": "createChannel",
      "outputs": [],
      "stateMutability": "nonpayable",
      "type": "function"
    },
    {
      "inputs": [
        {
          "internalType": "uint256",
          "name": "uuid",
          "type": "uint256"
        }
      ],
      "name": "getChannel",
      "outputs": [
        {
          "internalType": "string",
          "name": "protocol",
          "type": "string"
        },
        {
          "internalType": "address",
          "name": "protocolContractAddress",
          "type": "address"
        },
        {
          "internalType": "string",
          "name": "_newHash",
          "type": "string"
        }
      ],
      "stateMutability": "view",
      "type": "function"
    },
    {
      "inputs": [
        {
          "internalType": "uint256",
          "name": "uuid",
          "type": "uint256"
        },
        {
          "internalType": "string",
          "name": "_newHash",
          "type": "string"
        }
      ],
      "name": "subscribedToChannel",
      "outputs": [],
      "stateMutability": "nonpayable",
      "type": "function"
    },
    {
      "inputs": [
        {
          "internalType": "address",
          "name": "userAddress",
          "type": "address"
        }
      ],
      "name": "getUserInfo",
      "outputs": [
        {
          "internalType": "string",
          "name": "",
          "type": "string"
        }
      ],
      "stateMutability": "view",
      "type": "function"
    },
    {
      "inputs": [
        {
          "internalType": "string",
          "name": "hash",
          "type": "string"
        }
      ],
      "name": "upDateUserInfo",
      "outputs": [],
      "stateMutability": "nonpayable",
      "type": "function"
    },
    {
      "inputs": [
        {
          "internalType": "uint256",
          "name": "uuid",
          "type": "uint256"
        }
      ],
      "name": "unSubscribeChannel",
      "outputs": [],
      "stateMutability": "nonpayable",
      "type": "function"
    },
    {
      "inputs": [
        {
          "internalType": "uint256",
          "name": "channelId",
          "type": "uint256"
        }
      ],
      "name": "getListOfSubscriber",
      "outputs": [
        {
          "internalType": "address[]",
          "name": "",
          "type": "address[]"
        },
        {
          "internalType": "string[]",
          "name": "",
          "type": "string[]"
        },
        {
          "internalType": "bool[]",
          "name": "",
          "type": "bool[]"
        }
      ],
      "stateMutability": "view",
      "type": "function"
    }
  ],
  "bytecode": "0x608060405234801561001057600080fd5b50600080546001600160a01b031916331790556110f6806100326000396000f3fe608060405234801561001057600080fd5b50600436106100875760003560e01c80638d33fbe11161005b5780638d33fbe1146100ff578063b947844514610112578063ee0fd79e14610125578063f91580451461014757610087565b8062f55d9d1461008c57806310df54a0146100a15780633a4b6e70146100cc5780636386c1c7146100df575b600080fd5b61009f61009a366004610c21565b61015a565b005b6100b46100af366004610c7f565b610199565b6040516100c393929190610f32565b60405180910390f35b61009f6100da366004610c7f565b610321565b6100f26100ed366004610c21565b610467565b6040516100c39190610f1f565b61009f61010d366004610c97565b610517565b61009f610120366004610cdc565b61061a565b610138610133366004610c7f565b610729565b6040516100c393929190610e6e565b61009f610155366004610c44565b610a76565b6000546001600160a01b0316331461018d5760405162461bcd60e51b815260040161018490610f66565b60405180910390fd5b806001600160a01b0316ff5b60008181526002602052604081206005015460609190829060ff166101d05760405162461bcd60e51b815260040161018490610ff9565b60008481526002602081905260409091209081015460018201805490926001600160a01b039092169160030190839061020890611030565b80601f016020809104026020016040519081016040528092919081815260200182805461023490611030565b80156102815780601f1061025657610100808354040283529160200191610281565b820191906000526020600020905b81548152906001019060200180831161026457829003601f168201915b5050505050925080805461029490611030565b80601f01602080910402602001604051908101604052809291908181526020018280546102c090611030565b801561030d5780601f106102e25761010080835404028352916020019161030d565b820191906000526020600020905b8154815290600101906020018083116102f057829003601f168201915b505050505090509250925092509193909250565b60008181526002602052604090206005015460ff166103525760405162461bcd60e51b815260040161018490610ff9565b60005b6000828152600260205260409020600401548110156104285760008281526002602052604090206004018054339190839081106103a257634e487b7160e01b600052603260045260246000fd5b60009182526020909120600390910201546001600160a01b031614156104165760008281526002602052604081206004018054839081106103f357634e487b7160e01b600052603260045260246000fd5b60009182526020909120600390910201600201805460ff19169115159190911790555b806104208161106b565b915050610355565b507fc9b1636a60e15e38f69f9b6cfdc651d39fc0239a2efeb1417f252e5c3ae2b64833824260405161045c93929190610e16565b60405180910390a150565b6001600160a01b03811660009081526001602081905260409091200180546060919061049290611030565b80601f01602080910402602001604051908101604052809291908181526020018280546104be90611030565b801561050b5780601f106104e05761010080835404028352916020019161050b565b820191906000526020600020905b8154815290600101906020018083116104ee57829003601f168201915b50505050509050919050565b60008281526002602052604090206005015460ff166105485760405162461bcd60e51b815260040161018490610ff9565b60408051606081018252338152602080820184815260018385018190526000878152600284529485206004018054808301825590865294839020845160039096020180546001600160a01b0319166001600160a01b03909616959095178555905180519394859490936105bf938501920190610b07565b50604091820151600291909101805460ff1916911515919091179055517f558c2ef5ef39fd9841d4c23719facbfaa7645a0378e731fca47458afcd95d7b89061060d90339086904290610e16565b60405180910390a1505050565b6000848152600260205260409020546001600160a01b03163314156106515760405162461bcd60e51b815260040161018490610fa8565b600084815260026020908152604090912080546001600160a01b03191633178155845161068692600190920191860190610b07565b50600084815260026020818152604090922090810180546001600160a01b0319166001600160a01b03861617905582516106c892600390920191840190610b07565b5060008481526002602052604090819020600501805460ff19166001179055517f90516e1c517ffd233596948f0ea1f619ef01ad6dbeccdf7f33d388b2ef3287df9061071b903390879042908690610e37565b60405180910390a150505050565b600081815260026020526040812060040154606091829182918167ffffffffffffffff81111561076957634e487b7160e01b600052604160045260246000fd5b604051908082528060200260200182016040528015610792578160200160208202803683370190505b50905060008267ffffffffffffffff8111156107be57634e487b7160e01b600052604160045260246000fd5b6040519080825280602002602001820160405280156107f157816020015b60608152602001906001900390816107dc5790505b50905060008367ffffffffffffffff81111561081d57634e487b7160e01b600052604160045260246000fd5b604051908082528060200260200182016040528015610846578160200160208202803683370190505b50905060005b84811015610a6757600089815260026020526040902060040180548290811061088557634e487b7160e01b600052603260045260246000fd5b600091825260209091206003909102015484516001600160a01b03909116908590839081106108c457634e487b7160e01b600052603260045260246000fd5b6001600160a01b0390921660209283029190910182015260008a815260029091526040902060040180548290811061090c57634e487b7160e01b600052603260045260246000fd5b9060005260206000209060030201600101805461092890611030565b80601f016020809104026020016040519081016040528092919081815260200182805461095490611030565b80156109a15780601f10610976576101008083540402835291602001916109a1565b820191906000526020600020905b81548152906001019060200180831161098457829003601f168201915b50505050508382815181106109c657634e487b7160e01b600052603260045260246000fd5b6020026020010181905250600260008a81526020019081526020016000206004018181548110610a0657634e487b7160e01b600052603260045260246000fd5b906000526020600020906003020160020160009054906101000a900460ff16828281518110610a4557634e487b7160e01b600052603260045260246000fd5b9115156020928302919091019091015280610a5f8161106b565b91505061084c565b50919790965090945092505050565b336000818152600160205260409020546001600160a01b03161415610aad5760405162461bcd60e51b815260040161018490610fd0565b3360009081526001602081815260409092208351610ad393919092019190840190610b07565b507fb21cbedc105554b72bf42e9aa00c03a4045ccb7bac4606a8ea62106a742ab97e33824260405161045c93929190610de2565b828054610b1390611030565b90600052602060002090601f016020900481019282610b355760008555610b7b565b82601f10610b4e57805160ff1916838001178555610b7b565b82800160010185558215610b7b579182015b82811115610b7b578251825591602001919060010190610b60565b50610b87929150610b8b565b5090565b5b80821115610b875760008155600101610b8c565b600082601f830112610bb0578081fd5b813567ffffffffffffffff80821115610bcb57610bcb611092565b604051601f8301601f191681016020018281118282101715610bef57610bef611092565b604052828152848301602001861015610c06578384fd5b82602086016020830137918201602001929092529392505050565b600060208284031215610c32578081fd5b8135610c3d816110a8565b9392505050565b600060208284031215610c55578081fd5b813567ffffffffffffffff811115610c6b578182fd5b610c7784828501610ba0565b949350505050565b600060208284031215610c90578081fd5b5035919050565b60008060408385031215610ca9578081fd5b82359150602083013567ffffffffffffffff811115610cc6578182fd5b610cd285828601610ba0565b9150509250929050565b60008060008060808587031215610cf1578182fd5b84359350602085013567ffffffffffffffff80821115610d0f578384fd5b610d1b88838901610ba0565b945060408701359150610d2d826110a8565b90925060608601359080821115610d42578283fd5b50610d4f87828801610ba0565b91505092959194509250565b6000815180845260208085019450808401835b83811015610d8c578151151587529582019590820190600101610d6e565b509495945050505050565b60008151808452815b81811015610dbc57602081850181015186830182015201610da0565b81811115610dcd5782602083870101525b50601f01601f19169290920160200192915050565b6001600160a01b0384168152606060208201819052600090610e0690830185610d97565b9050826040830152949350505050565b6001600160a01b039390931683526020830191909152604082015260600190565b600060018060a01b038616825284602083015283604083015260806060830152610e646080830184610d97565b9695505050505050565b606080825284519082018190526000906020906080840190828801845b82811015610eb05781516001600160a01b031684529284019290840190600101610e8b565b5050508381038285015285518082528282019080840283018401888501865b83811015610efd57601f19868403018552610eeb838351610d97565b94870194925090860190600101610ecf565b50508681036040880152610f118189610d5b565b9a9950505050505050505050565b600060208252610c3d6020830184610d97565b600060608252610f456060830186610d97565b6001600160a01b03851660208401528281036040840152610e648185610d97565b60208082526022908201527f4f6e6c79206f776e65722063616e2063616c6c20746869732066756e6374696f604082015261371760f11b606082015260800190565b6020808252600e908201526d6368616e6e656c2065786973747360901b604082015260600190565b6020808252600f908201526e1a5b9d985b1a59081858d8dbdd5b9d608a1b604082015260600190565b60208082526017908201527f4368616e6e656c20646f6573206e6f742065786973742e000000000000000000604082015260600190565b60028104600182168061104457607f821691505b6020821081141561106557634e487b7160e01b600052602260045260246000fd5b50919050565b600060001982141561108b57634e487b7160e01b81526011600452602481fd5b5060010190565b634e487b7160e01b600052604160045260246000fd5b6001600160a01b03811681146110bd57600080fd5b5056fea26469706673582212206b00057fae9bec69c954f24bbb2b0a58f47014f333b58fac66655cf4ac6c90f564736f6c63430008000033",
  "immutableReferences": {},
  "source": "// SPDX-License-Identifier: GPL-3.0-or-later\npragma solidity >=0.6.0 <0.9.0;\n\ncontract NotificationModuleCore {\n    address owner;\n\n    constructor() {\n      owner = msg.sender;\n    }\n\n    function destroy(address payable _to) public {\n         require(\n            msg.sender == owner,\n            \"Only owner can call this function.\"\n        );\n        selfdestruct(_to);\n    }\n\n    struct Channel {\n        address owner;\n        string protocol;\n        address protocolContractAddress;\n        string _hash;\n        User[] subscriber;\n        bool exists;\n    }\n\n    struct User {\n        address userAddress;\n        string _hash;\n        bool isSubsribed;\n    }\n\n    mapping(address => User) private users;\n    mapping(uint256 => Channel) private channels;\n\n    // Modifiers to be added with User Role/Permissions\n\n// Events\n    event ChannelCreated(address owner, uint256 uuid, uint256 timestamp, string filehash);\n    event ChannelUpdated(address owner, uint256 timestamp, string filehash);\n    event ChannelDisabled(address owner, uint256 timestamp, string filehash);\n\n    event SubscribedToChannel(address owner, uint256 channelUUID, uint256 timestamp);\n    event UnubscribedChannel(address owner, uint256 channelUUID, uint256 timestamp);\n\n    event UserInfoUpdated(address owner, string hash, uint256 timestamp);\n\n    function createChannel(uint256 uuid, string memory protocol, address protocolContractAddress, string memory _newHash) public {\n       // can be developed further with modifiers (duplicate check) (// modifier access copntrat)\n        if (channels[uuid].owner == msg.sender) {\n            revert(\"channel exists\");\n        }\n        channels[uuid].owner = msg.sender;\n        channels[uuid].protocol = protocol;\n        channels[uuid].protocolContractAddress = protocolContractAddress;\n        channels[uuid]._hash = _newHash;\n        channels[uuid].exists = true;\n        emit ChannelCreated(msg.sender, uuid, block.timestamp, _newHash);\n    }\n\n    function getChannel(uint256 uuid) public view returns (string memory protocol, address protocolContractAddress, string memory _newHash) {\n        require(channels[uuid].exists, \"Channel does not exist.\");\n        return (channels[uuid].protocol, channels[uuid].protocolContractAddress, channels[uuid]._hash);\n    }\n\n    function subscribedToChannel(uint256 uuid, string memory _newHash) public{\n        require(channels[uuid].exists, \"Channel does not exist.\");\n       User memory user = User(msg.sender, _newHash, true);\n       channels[uuid].subscriber.push(user);\n       emit SubscribedToChannel(msg.sender, uuid, block.timestamp);\n    }\n\n     function getUserInfo(address userAddress) public view returns (string memory) {\n         return users[userAddress]._hash;\n     }\n\n     function upDateUserInfo(string memory hash) public {\n        if (users[msg.sender].userAddress == msg.sender) {\n            revert(\"invalid account\");\n        }\n         users[msg.sender]._hash = hash;\n        emit UserInfoUpdated(msg.sender, hash, block.timestamp);\n\n     }\n\n     function unSubscribeChannel(uint256 uuid) public{\n           require(channels[uuid].exists, \"Channel does not exist.\");\n          for (uint256 i = 0; i < channels[uuid].subscriber.length; i++) {\n             if(channels[uuid].subscriber[i].userAddress == msg.sender) {\n                 channels[uuid].subscriber[i].isSubsribed = false;\n             }\n        }\n         // to be done\n         emit UnubscribedChannel(msg.sender, uuid, block.timestamp);\n    }\n\n    function getListOfSubscriber(uint256 channelId) public view returns (address[] memory, string[] memory, bool[] memory) {\n         uint length = channels[channelId].subscriber.length;\n          address[] memory addrs = new address[](length);\n          string[] memory hash = new string[](length);\n          bool[] memory isSubsribed = new bool[](length);\n\n        for (uint i = 0; i < length; i++) {\n            addrs[i] = channels[channelId].subscriber[i].userAddress;\n            hash[i] = channels[channelId].subscriber[i]._hash;\n            isSubsribed[i] = channels[channelId].subscriber[i].isSubsribed;\n        }\n        return (addrs, hash, isSubsribed);\n    }\n\n}\n",
  "sourcePath": "/Users/harpreetsingh/Desktop/ENS/EventModule/contracts/NotificationModuleCore.sol",
  "compiler": {
    "name": "solc",
    "version": "0.8.0+commit.c7dfd78e.Emscripten.clang"
  },
  "schemaVersion": "3.4.3",
  "updatedAt": "2022-04-15T13:36:10.740Z",
  "devdoc": {
    "kind": "dev",
    "methods": {},
    "version": 1
  },
  "userdoc": {
    "kind": "user",
    "methods": {},
    "version": 1
  }
}